:100000000A128A11812CFF1B0D2883137F18831776
:100010000008840A0319FF0A080000308A00040857
:10002000840A8207003441344E3454344934523403
:1000300041344434203448344534413444344C341D
:1000400041344D345034003459344F3455345234E3
:1000500020344C3449344734483454342034483400
:100060004134533400344234453445344E34203422
:100070004D344134443445342034443449344D34CF
:100080000034563432345634203443344F344D34F3
:100090004D3400344C3449344734483454343A34C1
:1000A00000344534593445343A3400344E34443401
:0C00B000453400344434453454340034EA
:1009020083010A128A11BC2E8316031388018901FE
:1009120006309F00080064300A128A11CA240A12A3
:100922008A118230831603139F00080003100030DF
:1009320003180130F40001300A128A1189250A12C3
:100942008A110310003003180130F40080300A12BB
:100952008A1189250A128A110800F1006430F00018
:100962007008F200B52C00000130F202031DBA2C0F
:10097200BB2CB42C7108F00002300310F00DFF3EC6
:10098200031DBE2C0310700DC138831203139F0088
:100992000800F1000430F0007008F200FA30F000B4
:1009A2007008F300D52C00000130F302031DDA2C8D
:1009B200DB2CD42C0130F202031DE02CE12CCF2CD5
:1009C2000130F102031DE62CE72CCB2C0800F900C4
:1009D20011307902031CEE2CEF2CFC2C031000309A
:1009E20003180130F4007908AF3E0A128A118925F2
:1009F2000A128A11082D0310003003180130F40086
:100A020079087F3E0A128A1189250A128A11080082
:100A1200212DF4010314F40D7A08FF0079088400F3
:100A22000A128A1103200A128A110A128A118925CE
:100A32000A128A110130F9070318FA0A0030FA077C
:100A42007A08FF00790884000A128A1103200A1228
:100A52008A110038031D2E2D2F2D0A2D0800831612
:100A620003139E01831203139E011430F2007208D5
:100A7200F4003C2D00000130F402031D412D422DF3
:100A82003B2D831203131F15462D1F19492D4A2D85
:100A9200462D1E08F200F3010830FE000310F20D8D
:100AA200F30DFE0B4F2D831603131E087204F00084
:100AB2007308F10008000310003003180130F4003D
:100AC20038300A128A1189250A128A11031000305D
:100AD20003180130F4000C300A128A1189250A1217
:100AE2008A110310003003180130F40001300A1299
:100AF2008A1189250A128A11031000300318013065
:100B0200F40080300A128A1189250A128A1108001B
:100B1200F60076088312031388007408031D922DD1
:100B2200942D0915952D0911F7010314F70D9A2D2E
:100B320000000130F702031D9F2DA02D992D831275
:100B4200031389140A30F5007508F800A92D000076
:100B52000130F802031DAE2DAF2DA82D8312031311
:100B6200891002300A128A11CA240A128A11080054
:100B7200710870040319BE2DBF2DEF2DF50103146A
:100B8200F50DCE2D01300310F00DF10DFF3E031DCA
:100B9200C42D0130F4007408F507F11FD12DD22DB8
:100BA200C32D71087302031DD82D70087202031C35
:100BB200DB2DDC2DE22D7008F2027108031CF30319
:100BC200F30201300310F10CF00CFF3E031DE32D84
:100BD2000130F502031DEE2DEF2DD22D7308F10128
:100BE200F1077208F001F00708000030F50000304C
:100BF200F600710870040319FF2D002E382EF7013C
:100C02000314F70D0F2E01300310F00DF10DFF3E0E
:100C1200031D052E0130F4007408F707F11F122E90
:100C2200132E042E01300310F50DF60DFF3E031DA9
:100C3200142E71087302031D202E70087202031C09
:100C4200232E242E2B2E7008F2027108031CF303AC
:100C5200F302751401300310F10CF00CFF3E031D7A
:100C62002C2E0130F702031D372E382E132E760854
:100C7200F101F1077508F001F00708008312031370
:100C8200A8010314A80D7C087B040319492E4A2EDF
:100C9200722E7C08A701A7077B08A601A607552E7E
:100CA2000130FD007D08A8070A30F0000030F10095
:100CB2002708F301F3072608F201F2070A128A1144
:100CC200F6250A128A11710883120313A701A707D6
:100CD2007008A601A60727082604031D712E722E8E
:100CE200512E03102808203E8400003003180130E2
:100CF200831380000A30F0000030F1007C08F30119
:100D0200F3077B08F201F2070A128A11B9250A12C7
:100D12008A117008303EFD00013083120313A802CD
:100D22002808203E84007D08831380000A30F000EA
:100D32000030F1007C08F301F3077B08F201F207AF
:100D42000A128A11F6250A128A117108FC01FC079F
:100D52007008FB01FB077C087B04031DB12EB22E39
:100D62007B2E2030F9000030FA000A128A11092580
:100D72000A128A11080083160313870183120313D0
:100D82008701F03083160313860083120313860152
:100D92000A128A1185240A128A110A128A118C24D3
:100DA2000A128A110A128A115C250A128A1101306A
:100DB2000A128A11E8240A128A112F30F9008030AF
:100DC200FA000A128A1109250A128A1111300A122E
:100DD2008A11E8240A128A110130F9008030FA00DF
:100DE2000A128A1109250A128A11FA300A128A1184
:100DF200CA240A128A11FA300A128A11CA240A1261
:100E02008A11FA300A128A11CA240A128A11FA3095
:100E12000A128A11CA240A128A110A128A11972402
:100E22000A128A1101300A128A11E8240A128A115E
:100E32003F30F9008030FA000A128A1109250A129D
:100E42008A1108300A128A11E8240A128A113830EB
:100E5200F9008030FA000A128A1109250A128A1151
:100E6200831203130714871000300A128A11AE246A
:100E72000A128A110A128A1130250A128A1170087E
:100E820083120313A9002908AB00FA300A128A114F
:100E9200CA240A128A11FA300A128A11CA240A12C0
:100EA2008A1105300A128A11E8240A128A11831261
:100EB20003132B08A900AA012908FB002A08FC0039
:100EC2000A128A113F260A128A11FA300A128A116C
:100ED200CA240A128A11FA300A128A11CA240A1280
:100EE2008A1183120313071A772F782F942F0F304A
:100EF2000A128A11E8240A128A114830F900803055
:100F0200FA000A128A1109250A128A11FA300A1203
:100F12008A11CA240A128A11FA300A128A11CA24C0
:100F22000A128A11AF2F0F300A128A11E8240A120C
:100F32008A114430F9008030FA000A128A11092518
:100F42000A128A11FA300A128A11CA240A128A1162
:100F5200FA300A128A11CA240A128A11831203135E
:100F6200071AB42FB52FBC2F97302B02031CBA2FB0
:100F7200BB2FBC2F0614071EBF2FC02FC62F9730C2
:100F82002B02031CC52FC62FC72F0614061ACA2F01
:100F9200CB2FFC2F07108714FA300A128A11CA24A9
:100FA2000A128A11FA300A128A11CA240A128A1102
:100FB2000A128A1197240A128A1101300A128A111E
:100FC200E8240A128A111230F9008030FA000A125B
:100FD2008A1109250A128A1111300A128A11E8248B
:100FE2000A128A112130F9008030FA000A128A119D
:0E0FF20009250A128A11312F0A128A110028CD
:02400E00321965
:00000001FF
