:100000000A128A11132DFF1B0D2883137F188317E3
:100010000008840A0319FF0A080000308A00040857
:10002000840A820700344C3431343A34203420348A
:10003000203420342034203420344C3432343A34C8
:1000400000344834493457344134593420344C3422
:1000500049344734483454340034453479346534B1
:040060003A340034FA
:100A260083010A128A113D2F831603138801890157
:100A360006309F00080064300A128A1177250A12D0
:100A46008A118230831603139F00080003100030BA
:100A560003180130F40001300A128A110A260A121C
:100A66008A110310003003180130F40080300A1296
:100A76008A110A260A128A110800831603139E0198
:100A86001430F0007008F100492D00000130F10229
:100A9600031D4E2D4F2D482D831203131F15532D65
:100AA6001F19562D572D532D831603131E080800A4
:100AB600F1006430F0007008F200622D0000013091
:100AC600F202031D672D682D612D7108F0000230BA
:100AD6000310F00DFF3E031D6B2D0310700DC13882
:100AE600831203139F000800F1000430F000700821
:100AF600F200FA30F0007008F300822D0000013099
:100B0600F302031D872D882D812D0130F202031D6E
:100B16008D2D8E2D7C2D0130F102031D932D942DEC
:100B2600782D0800F90011307902031C9B2D9C2DAD
:100B3600A92D0310003003180130F4007908AF3EE8
:100B46000A128A110A260A128A11B52D03100030DC
:100B560003180130F40079087F3E0A128A110A262A
:100B66000A128A110800CE2DF4010314F40D7A0836
:100B7600FF00790884000A128A1103200A128A11DA
:100B86000A128A110A260A128A110130F907031875
:100B9600FA0A0030FA077A08FF00790884000A1278
:100BA6008A1103200A128A110038031DDB2DDC2D61
:100BB600B72D08000310003003180130F400383058
:100BC6000A128A110A260A128A1103100030031823
:100BD6000130F4000C300A128A110A260A128A1110
:100BE6000310003003180130F40001300A128A1194
:100BF6000A260A128A110310003003180130F40085
:100C060080300A128A110A260A128A110800F60092
:100C160076088312031388007408031D132E152EFD
:100C26000915162E0911F7010314F70D1B2E0000E6
:100C36000130F702031D202E212E1A2E83120313D4
:100C460089140A30F5007508F8002A2E00000130D4
:100C5600F802031D2F2E302E292E8312031389101E
:100C660002300A128A1177250A128A1108007108C1
:100C7600700403193F2E402E702EF5010314F50D56
:100C86004F2E01300310F00DF10DFF3E031D452ED2
:100C96000130F4007408F507F11F522E532E442E2E
:100CA60071087302031D592E70087202031C5C2E14
:100CB6005D2E632E7008F2027108031CF303F30223
:100CC60001300310F10CF00CFF3E031D642E0130C1
:100CD600F502031D6F2E702E532E7308F101F107D6
:100CE6007208F001F00708000030F5000030F60049
:100CF600710870040319802E812EB92EF701031492
:100D0600F70D902E01300310F00DF10DFF3E031D7F
:100D1600862E0130F4007408F707F11F932E942EE7
:100D2600852E01300310F50DF60DFF3E031D952EA1
:100D360071087302031DA12E70087202031CA42EF3
:100D4600A52EAC2E7008F2027108031CF303F30201
:100D5600751401300310F10CF00CFF3E031DAD2E8F
:100D66000130F702031DB82EB92E942E7608F10134
:100D7600F1077508F001F007080083120313A801B4
:100D86000314A80D7C087B040319CA2ECB2EF32E60
:100D96007C08A701A7077B08A601A607D62E013067
:100DA600FD007D08A8070A30F0000030F100270892
:100DB600F301F3072608F201F2070A128A117726D1
:100DC6000A128A11710883120313A701A707700874
:100DD600A601A60727082604031DF22EF32ED22EFF
:100DE60003102808203E84000030031801308313C6
:100DF60080000A30F0000030F1007C08F301F307B0
:100E06007B08F201F2070A128A113A260A128A119F
:100E16007008303EFD00013083120313A802280833
:100E2600203E84007D08831380000A30F0000030E5
:100E3600F1007C08F301F3077B08F201F2070A12BE
:100E46008A1177260A128A117108FC01FC077008BC
:100E5600FB01FB077C087B04031D322F332FFC2E7E
:100E66002030F9000030FA000A128A11B6250A125B
:100E76008A110800FF30831603138500F0308600C0
:100E860087018312031387010A128A1117250A1292
:100E96008A110A128A11DD250A128A110A128A118A
:100EA6001E250A128A1100300A128A115B250A12BF
:100EB6008A1101300A128A1195250A128A110F30F9
:100EC600F9008030FA000A128A11B6250A128A1130
:100ED600FA300A128A1177250A128A11FA300A1292
:100EE6008A1177250A128A11FA300A128A11772591
:100EF6000A128A11FA300A128A1177250A128A1101
:100F06000A128A1129250A128A1101300A128A1137
:100F160095250A128A111B30F9008030FA000A1250
:100F26008A11B6250A128A1111300A128A119525DC
:100F36000A128A110130F9008030FA000A128A1169
:100F4600B6250A128A1100300A128A115B250A1286
:100F56008A110A128A1140250A128A118312031372
:100F6600A900AA012908AB002A08AC00FA300A1227
:100F76008A1177250A128A11FA300A128A11772500
:100F86000A128A1101300A128A1195250A128A114B
:100F9600831203132C08FC01FC072B08FB01FB073B
:100FA6000A128A11C0260A128A11FA300A128A1106
:100FB60077250A128A11FA300A128A1177250A123F
:100FC6008A1183120313061AE92FEA2FF22FF9303A
:100FD6008316031392003E30831203139B000030E6
:100FE6002C02973003192B02031CFA2FFB2FFC2F20
:0A0FF6000614A62F0A128A11002823
:02400E00321965
:00000001FF
